:030000000201BB3F
:0C01BB00787FE4F6D8FD75810C0200E7A7
:10000E0075A0FFC2A2D2A1D2A020A30630A3FD7F6D
:10001E00012220A40630A4FD7F042220A50630A5CF
:10002E00FD7F0722D2A2C2A1D2A020A30630A3FD3B
:10003E007F022220A40630A4FD7F052220A50630D3
:10004E00A5FD7F082220A60630A6FD7F0022D2A2A3
:10005E00D2A1C2A020A30630A3FD7F032220A406B6
:10006E0030A4FD7F062220A50630A5FD7F09227F44
:02007E000A2254
:10018B00E4F509F50AC28C5389F0438902F58AF527
:08019B008CC2B9D28CD2A9225A
:05000600D288D2A822FF
:03000B00020140AF
:10014000C0E0C0F0C0D075D000C000C004C005C081
:1001500006C007C2A9050AE50A70020509AC0BAD85
:100160000C7E077FD0120092EFB50A0CEEB509089D
:10017000B2B0750900750A00D2A9D007D006D00523
:0B018000D004D000D0D0D0F0D0E0328E
:030003000201A354
:1001A300C0E0C2A8E508640A7004F50880020508E7
:0801B300850890D2A8D0E032CB
:1000E7007B0AE4F5A8C2B0F50BF50CF508F590FA14
:1000F700EAC39403748094805024EB640A70071257
:10010700000EAB0780F4AE0BAF0C7C007D0A12002B
:1001170080EB2FF50CEC3EF50B7B0A0A80D2D3E57A
:100127000C9464E50B94004006750B00750C641283
:09013700018B120006D2AF80FE1C
:10008000EF8DF0A4A8F0CF8CF0A428CE8DF0A42E94
:02009000FE224E
:10009200BC000BBE0029EF8DF084FFADF022E4CC52
:1000A200F875F008EF2FFFEE33FEEC33FCEE9DEC1B
:1000B200984005FCEE9DFE0FD5F0E9E4CEFD22ED61
:1000C200F8F5F0EE8420D21CFEADF075F008EF2FAB
:1000D200FFED33FD4007985006D5F0F222C398FD9C
:0500E2000FD5F0EA2239
:00000001FF
